:100000006DC1000087C1000085C100000C94F60C92
:1000100081C100007FC100007DC100007BC10000E4
:1000200079C1000077C1000075C100000C94881EE2
:1000300071C100006FC100006DC100000C94320E50
:1000400069C1000067C1000065C100001FC4000055
:1000500061C100005FC100005DC100005BC1000024
:1000600059C1000057C1000055C1000053C1000034
:1000700051C100004FC100004DC100004BC1000044
:1000800049C1000047C1000045C1000043C1000054
:1000900041C100003FC1000042EA06435A0246E166
:1000A0000969A11541D614471C094DAB0852A90690
:1000B00054AA1856960657610758351165200766E9
:1000C0006A1A6D5C1B6C110774D50475C1127872C5
:1000D000030000001201100102000008EB034B2096
:1000E0000000010200010902430002010080320900
:1000F0000400000102020100052400011005240192
:1001000003010424020605240600010705820308F2
:1001100000FF09040100020A000000070504024074
:10012000000007058302400000040309041603626F
:10013000007500730077006100720065002E006496
:1001400000650000002A03430055004C00380036CB
:1001500000380000002A03430055004C00340033EF
:10016000003300000000030F1E2627000000030FCD
:100170001E2536386700030F256740605000030FC7
:10018000275188838100030F2750C8C3C20027006E
:1001900000000000000067000000000000005000A8
:1001A0000000000000008100000000000000C2000C
:1001B00000000000000D2E2D07D3913D04320000F9
:1001C000060021656A55E43023B900070018146C55
:1001D000070090876BF85611E92A001F4100072E8F
:1001E000050DD391FF080500000C0021656A2D3B29
:1001F0001322F862073F181D1CC700B0876BF8B6C2
:1002000011EA2A001F4100202F2000203D20005627
:1002100020312E34362043554C38363800562031A4
:100220002E34362043554C3433330043554C5F56FF
:100230003400202F2000203D20004C4F56460D0A50
:1002400000424F56460D0A000007022E030D04E936
:1002500005CA070C0B060D210E650F6A10C8119315
:10026000120315341730181819161B432156250090
:1002700026112D353EC3FF0000000D2E2D07D39112
:100280003D04320000060010B07155E43023B9007F
:10029000070018146C070090876BF85611E92A00C4
:1002A0001F410000535300547D7DFFFF4B4B7E7E6A
:1002B00000454F420D0A004E2F41004E2F410020B5
:1002C000697320756E6B6E6F776E2920557365208C
:1002D0006F6E65206F66003F2028000011241FBE4E
:1002E000CFEFD4E0DEBFCDBF11E0A0E0B1E0ECE4A1
:1002F000FFE302C005900D92A631B107D9F713E0D4
:10030000A6E1B1E001C01D92A43DB107E1F70CD018
:100310000C94A41F75CEF89481E085BF82E085BF60
:10032000E0E0F8E3099508952FE088E190E00FB64A
:10033000F894A895809360000FBE2093600080E041
:1003400090E020E80FB6F89420936100809361005C
:100350000FBE2E9A2D9A04B603FE0AC083E390E0E6
:10036000F5D4882329F083E390E060E02ED5D3DF35
:1003700089EF87BD84E085BD82E084BD80936E00F7
:10038000109280008AE08093810084B7877F84BFC9
:100390003D9A0E94281B82D50E947B1E0E948918CC
:1003A0000E94E40985EE9AE19093C3028093C20211
:1003B0000E945F1389E080931A0145980E941E1FD6
:1003C000A8D10E94A00EA2D20E94121A0E944F1120
:1003D0000E947213F3CFDA01292F3327223031051F
:1003E00059F02330310569F02130310561F544EDD4
:1003F00050E022E130E02BC046EE50E023E430E054
:1004000026C090708130910551F08130910518F02F
:100410000297C9F40BC0E9E2F1E0849103C0EDE278
:10042000F1E08491282F30E0AF0111C01E9B03C082
:1004300045E451E002C045E551E0E5E4F1E0E49136
:100440002E2F30E004C040E050E020E030E04D933B
:100450005C93C90108958EBD0DB407FEFDCF8EB526
:1004600008952898806C8EBD0DB407FEFDCF8EB523
:100470001EBC0DB407FEFDCF8EB5289A08952898AE
:1004800080648EBD0DB407FEFDCF8EB56EBD0DB47C
:1004900007FEFDCF8EB5289A089528988EBD0DB41D
:1004A00007FEFDCF8EB5289A089586E3F6DF1092F9
:1004B000C4020895A1E0B0E0E0E6F2E00C94651F0C
:1004C0000196BE016F5F7F4F41E0D1D3892B41F18F
:1004D0008981893989F400E010E0802FC2DF80D360
:1004E000C80187709070079709F420D30F5F1F4FE2
:1004F0000033110591F714C0B4DF182F83E4E1D263
:1005000089816ED38BE092E015D3812F69D387E088
:1005100092E010D3812F90E062E040E265D306D3F1
:100520002196E4E00C94811F1F931FEF84E3B5DF55
:100530008AE090E047D21150C9F7EA9A1F910895D6
:100540001F93EA9886E3A9DF1FEF85E3A6DF8AE021
:1005500090E038D21150C9F71F910895EF92FF92A1
:100560000F93CF93DF93082F8A3008F008E0C02F55
:10057000D0E083E0CC0FDD1F8A95E1F7CB59DE4F49
:100580008BE290E07C010894E11CF11CFE01649177
:100590001CD42196C70183339105A1F7055005307E
:1005A00010F067E101C061E184E290E00ED4DF91D8
:1005B000CF910F91FF90EF900895CF93DF9382E05A
:1005C00090E0EC012196FE01EE54FE4FE4916E2F77
:1005D000FCD3CB32D10511F0CE01F3CF87E390E00D
:1005E000EC012196FE01EA55FE4FE4916E2FEDD30A
:1005F000C036D10511F0CE01F3CF1E9918C08FE09F
:1006000090E060E1E2D380E190E060EBDED381E155
:1006100090E061E7DAD384E490E060E1D6D385E44A
:1006200090E060EBD2D386E490E061E7CED388E03F
:1006300095DFDF91CF9108950F931F93CF93DF93B1
:100640008C01EA98209A289A8EE190E0BBD12898F4
:100650008EE190E0B7D1289A8DE290E0B3D180E3AB
:100660001CDF84E690E0AED1289880E48EBD0DB406
:1006700007FEFDCF8EB5C0E0D0E0C8018C0F9D1FF6
:1006800065D38EBD0DB407FEFDCF8EB52196C93260
:10069000D10599F7289A28988EE78EBD0DB407FEEC
:1006A000FDCF8EB58BE290E0EC0121964FD38EBD4D
:1006B0000DB407FEFDCF8EB5C333D10511F0CE01C9
:1006C000F3CF289A83E3E9DE81E081D1DF91CF91F6
:1006D0001F910F91089582E090E0AEDF81E080935A
:1006E000C4020895A1E0B0E0E8E7F3E00C94671FCE
:1006F00022E029830196BE016F5F7F4F41E0B7D2B0
:1007000089812CDF82E090E097DF2196E2E00C9473
:10071000831F8091C703843009F061C08093E90092
:1007200080911601882341F58091E80085FD06C07F
:1007300023C06091F10080E893E011D48091F20031
:100740008823B9F78091E800982F9B7F9093E80069
:100750008F778093E80081E08093160189E893E029
:100760009093C1028093C002E091C202F091C30253
:1007700081E009951092160183E08093E900809151
:100780003F03882361F18091E80085FF28C0F89439
:1007900005C08DE393E0F8D38093F10080913F038F
:1007A000882321F08091F200803498F3789480912E
:1007B000F2009091E800292F2E7F2093E8009F7788
:1007C0009093E800803459F40E94351D8091E80030
:1007D000982F9E7F9093E8008F778093E80008958C
:1007E0009091C8038091C903813229F0823261F16E
:1007F000803299F512C0913A81F58091E800877FA7
:100800008093E80080E091E067E070E00E94601D66
:100810008091E800982F9B7F11C09132F1F4809174
:10082000E800877F8093E80080E091E067E070E077
:100830000E94FA1D8091E800982F9E7F9093E80017
:100840008F778093E8000895913239F48091E80021
:10085000877F8093E8000C940C1D089582E061EC82
:1008600042E00E94E21C83E061E842E30E94E21C55
:1008700084E060E842E30E94E21C109200011092C2
:100880000101109202011092030108951F920F922C
:100890000FB60F9211248F939F93AF93BF938091C4
:1008A000C6029091C702A091C802B091C9020196F8
:1008B000A11DB11D8093C6029093C702A093C802E8
:1008C000B093C9028091C5028F5F8093C5028D37B6
:1008D00010F01092C502809128039091290300978F
:1008E00029F00197909329038093280380913B037B
:1008F0008F3F19F0815080933B03BF91AF919F913F
:100900008F910F900FBE0F901F9018959091C60277
:1009100080911801981709F447C090931801A89581
:100920008091280390912903892B11F40E942D189E
:1009300080913B03882311F40E94141880911803BE
:10094000882339F0815080931803882311F40E9482
:10095000A5128091C502882339F58091070181FF96
:1009600004C088B190E2892788B98091CA02909129
:10097000CB0223E08438920728F401969093CB02AF
:100980008093CA02809117018F5F809317018C3387
:1009900059F410921701809125038F5F80932503EE
:1009A0008C3310F01092250308958091C90218D15C
:1009B0008091C80215D18091C70212D18091C602E0
:1009C0000FD1B4C0880F991F0197F1F7089520ED5A
:1009D00037E004C0F9013197F1F781508823D1F74E
:1009E0000895CF93DF93AC01DC0113968C9113979C
:1009F000843509F063C09C912DE001C02F5F291759
:100A000030F4FA01E20FF11D83818B33B9F730E046
:100A1000E92FF0E0CF010F972817390709F04EC0F2
:100A20003E979A012E0F3F1F3E96D90113968C9147
:100A3000843509F043C03B97EA01CE0FDF1F3B9698
:100A4000DA0114969C91149789819817B9F5159637
:100A50009C9115978A81981789F516969C911697FF
:100A60008B81981759F517969C918C81981731F5C1
:100A70007197E40FF51F8D818383F90131968E8183
:100A8000D90111968C93DF01119689858183FD012F
:100A900031968A8511968C93DF0111968B8581831F
:100AA0008C8511968C9311978D8512968C93FA01F3
:100AB00080818A50808382818A508283DF91CF91A6
:100AC00008951F93182F8091C703843081F480917B
:100AD0001A0180FF0CC080913F03803408F019DEBA
:100AE0008DE393E0612F3BD21A3009F412DE80913E
:100AF00023038823C9F080911A0183FF15C01A309F
:100B000099F01D3011F46BE301C0612F83ED92E089
:100B100026D21D3019F483ED92E063DF83E08093E9
:100B2000180382E080931E031F9108958DE0C9DFB2
:100B30008AE0C7CFCF93DF93EC0102C0C2DF2196DA
:100B4000FE0184918823D1F7DF91CF910895CF934F
:100B5000DF93EC0102C02196B4DF88818823D9F7A6
:100B6000DF91CF910895A5E0B0E0E9EBF5E00C94BA
:100B7000671F1D82FE01349624E0582F5F702150BC
:100B80005A3018F4352F305D02C0352F395C308370
:100B900034E0969587953A95E1F761503197009743
:100BA00061F72150822F992787FD90952F5FFE01D5
:100BB0003196E80FF91F03C02150408331976150EF
:100BC00067FD02C01216C4F3332727FD3095CE010E
:100BD0000196820F931FBBDF2596E2E00C94831FE2
:100BE00090E062E040E3BFCFA6E0B0E0EAEFF5E0DE
:100BF0000C94651F9C01162F042F1E82FE01359652
:100C000045E04150C9016AE070E00E94431F805DE9
:100C10008083C9016AE070E00E94431F9B0111506C
:100C20006115710559F44150842F992787FD9095DE
:100C30004F5FFE013196E80FF91F07C0319744233B
:100C400001F7F1CF415000833197115017FD02C0D9
:100C50001416C4F3242F332727FD3095CE010196B7
:100C6000820F931F74DF2696E4E00C94811FDC0151
:100C7000FB0123C0822F80538A3010F050E002C065
:100C8000382B51E0822F8154863020F42753322BA9
:100C9000295C51E0822F8156863018F42755322B7B
:100CA00007C0552329F4203271F02A3361F00EC0B9
:100CB000992331F03193415049F030E090E003C086
:100CC0003295307F91E02D912223A1F6CF01861B32
:100CD000970B0895FC01DB0120E030E00FC0842F6A
:100CE00080538A3058F4C9016AE070E00E94311FD5
:100CF000242F30E020533040280F391F41914423E6
:100D000071F72D933C930895FB01982F92959F7056
:100D10009A3010F4905D01C0995C90838F708A3096
:100D200010F4805D01C0895C81830895FC0181819C
:100D3000883419F48BE292E007C01E9903C08DE15C
:100D400092E002C08FE092E0F5DEF0CE0C948E1FB0
:100D50000895EF92FF921F93DF93CF9300D0CDB70A
:100D6000DEB71B8219820196BE016F5F7F4F42E0A2
:100D70007EDF2981823041F4922F80E02A81E22EA9
:100D8000FF24E82AF92A02C0E22EFF24C701DEDF91
:100D9000182F82E596DEC70164E040E3E4DE86E3D7
:100DA00092E0C8DE812F1CDF82E392E0C3DE812F58
:100DB00090E062E040E218DFB9DE0F900F90CF9133
:100DC000DF911F91FF90EF9008950E94961FF9996F
:100DD000FECF0895A1E0B0E0E0EFF6E00C94671FCD
:100DE0001982009731F00196BE016F5F7F4F41E09D
:100DF0003EDF8981882321F083E390E061E0E5DF35
:100E00000E946C1E10926E00F89428E088E190E039
:100E10000FB6F894A895809360000FBE20936000F1
:100E2000FFCF019667E071E041E021DF60910701AB
:100E300060FF02C0459A01C0459884E390E0C5CFA9
:100E40000F931F938C0180E090E061E0BEDF81E0B2
:100E500090E06EE2BADFB1DB80E690E060E0B5DF03
:100E600081E690E060E0B1DF83E390E060E0ADDF39
:100E700084E390E062E0A9DF80E690E060E0A5DF37
:100E800081E690E060E0A1DFF8018181883719F008
:100E900080E090E09FDF1F910F91089580E090E047
:100EA00055DF813029F481E090E050DF8E3219F077
:100EB00080E090E0C5DF84E390E048DF80930701A5
:100EC0000895A6E0B0E0E7E6F7E00C94611F6C013E
:100ED0000196BE016F5F7F4F43E0C9DE082F82306D
:100EE000A8F12981823019F4E22EFF2407C0922F45
:100EF00080E02A81E22EFF24E82AF92A10E0FE0190
:100F0000E00FF11FC701608160DF000F111F0F5F4D
:100F10001F4F0C0D1D1D0894E11CF11C6E0108945F
:100F2000C11CD11C0FC0C801B60141E0A0DE892B55
:100F300069F0C701698149DF0E5F1F4F82E090E0D1
:100F4000E80EF91EF8018081882369F72696E8E00B
:100F50000C947D1FFC011282108211820895DC0125
:100F600012968C911297803470F48F5F12968C9346
:100F700012978C91FD01E80FF11D63838F5F8C93B5
:100F8000803409F41C920895DC0112968C9112971A
:100F9000882311F490E013C0815012968C9312971D
:100FA00011968C911197FD01E80FF11D93818F5FD0
:100FB00011968C931197803411F411961C92892FFD
:100FC0000895CF93DF93DB01EA01322F4881882314
:100FD00069F0FB01E40FF11D81E090E002C0880F91
:100FE000991F2A95E2F72081282B2083332319F0BB
:100FF000832F815009C0842F8F5F8C3008F4888341
:10100000A80FB11D1C9287E090E0DF91CF91089569
:101010001F93182F5B9A882319F080911D0102C03D
:1010200080911B0190E034E0880F991F3A95E1F719
:10103000C9DC5B98112319F080911E0102C08091D8
:101040001C0190E024E0880F991F2A95E1F7BADC93
:101050001F910895A0E0B0E0E0E3F8E00C945A1F7F
:101060004C01562EC42E122FD02E2091CA02309140
:10107000CB02642F70E06E5F7F4F802F90E00E9464
:10108000311F992787FD90952817390720F48AE3A7
:1010900092E050DD5BC0281B390B3093CB022093CC
:1010A000CA02459A8091C402882309F414DB48DA05
:1010B00041E0642E712CA12EBB2410E003C080E01F
:1010C000A7DF1F5F1515D9F781E0A2DF8401FF2498
:1010D00015C0C7E0D0E093010C2E02C0220F331FD1
:1010E0000A94E2F7F8018081822392DF2197FFEFD3
:1010F000CF3FDF0781F7F3940F5F1F4FFC1449F7D1
:10110000C7E0D0E00C2D112707FD1095080D191D23
:101110000CC093010C2E02C0220F331F0A94E2F779
:10112000F8018081822374DF2197AC16BD068CF311
:101130008E2D4DDCDA9409F0C0CF8091CC0288234B
:1011400011F0F2D902C086E3A8D94598CDB7DEB731
:10115000EFE00C94761FA9E1B0E0E1EBF8E00C942D
:101160005B1FFEE0EF2EF12CEC0EFD1E0196B70189
:101170004BE07DDD893009F05BC089E180931C0183
:1011800080931B0180931D0182E380931E01C701A0
:1011900069E03DD18F8B19821A8207E0A7E010E049
:1011A000E7E06E2E712C71E0872E912C570162E0E2
:1011B000C62ED12CCC0EDD1E7E010894E11CF11C44
:1011C00001C007E0802F992787FD90959301281B88
:1011D000390BC40102C0880F991F2A95E2F79C01C0
:1011E000F501E10FF11D80818223B601A7012A2FAD
:1011F000E8DEA82F002311F00150E4CF81E0B60112
:10120000A7012A2FDEDEA82F1F5F1A30D0F2882315
:1012100019F0282F215004C089818F5F898327E02E
:10122000CE0102966CE0498103E05AE0E52E12DF20
:101230006996EEE00C94771FEF920F93DF93CF93B4
:10124000CDB7DEB760970FB6F894DEBF0FBECDBF47
:101250000196BE016F5F7F4F40E109DD69814A81E0
:101260000B818C8180931B018D8180931C018E8169
:1012700080931D018F8180931E01242F2F70E02EFB
:10128000E294AFE0EA22CE01089642954F700F70CB
:10129000E1DE60960FB6F894DEBF0FBECDBFCF91F2
:1012A000DF910F91EF900895AEE0B0E0EAE5F9E04C
:1012B0000C94571F7C01162F842F2E87B701412FC6
:1012C0009AD0F701E10FF11D8083A12EA39419821A
:1012D0001A824701BB24E7E091E0292E312C82E0FD
:1012E000482E512C4C0E5D1E3E010894611C711C51
:1012F0002FC007E010E06701CB0CD11C9101002E3C
:1013000002C0220F331F0A94E2F7D6018C91822388
:10131000B201A3012E2F55DEE82F01501040BFEF80
:101320000F3F1B0759F7D4018D914D01082E82956F
:101330008025082E86958695802590E001969595C6
:1013400087958170B201A3012E2F3BDEE82FB39465
:10135000BA1478F2EE2319F02E2F215004C089819F
:101360008F5F898327E089E180931C0180931B01B3
:1013700085E280931E0180931D01CE0102966CE0F0
:1013800049810E85BAE0EB2E65DE2E96E2E10C94E3
:10139000731FACE0B0E0EFECF9E00C94631FF62EA5
:1013A000E42E01968E010F5F1F4FB8014BE05FDC0A
:1013B000682FC8014F2D2E2D77DF2C96E6E00C9478
:1013C0007F1F66E043E0E5CF539A5B985298E9E6C9
:1013D000F0E080818061808382EC91E09093CB0289
:1013E0008093CA0210923B01109257011092730130
:1013F0001092C4020895982F06C04150FB01E40FDB
:10140000F11D8081980F4423C1F7892F0895AC0105
:1014100020E006C06150FA01E60FF11D8081282707
:101420006623C1F7822F0895A0E0B0E0EAE1FAE078
:101430000C94611FDC011092A7011092920197E0B9
:1014400013968C911397981B11961C911197110F5D
:10145000110F110F190F10929301FF24EE2407E0D2
:1014600057E040E070E0E7E0CE2ED12CC1E0D0E0C4
:101470007FC0FD01EE0DF11D848190E0002E02C0C1
:10148000959587950A94E2F7282F2170002311F093
:10149000015002C0E39407E06B3469F4533059F40F
:1014A0007723B9F5222311F071E062C040939201D5
:1014B0001092A7011EC05F3F69F56634E1F4E42F86
:1014C000F0E0ED56FE4F8081082E82958025082E93
:1014D00086958695802590E00196959587958170F3
:1014E000907030E08217930761F0409392017093FF
:1014F000A70180E057C0653411F06B3411F422234A
:10150000A1F34F5FE42FF0E0ED56FE4F108257E05D
:101510002FC070E0222359F1663479F4E42FF0E013
:10152000ED56FE4F9E01052E02C0220F331F0A9476
:10153000E2F78081822B80831AC0653411F06B340E
:10154000B1F4E42FF0E0ED56FE4F852F992787FD8B
:1015500090959601281B390BC9019E0102C0220FEC
:10156000331F8A95E2F7C9012081282B208351502F
:10157000F3948F2D8150811708F47BCF4093920113
:101580007093A7011F1508F0B4CF653411F45F3FC5
:1015900011F0772319F04F5F4093920180919201EF
:1015A000811181E0CDB7DEB7E8E00C947D1FDC014E
:1015B00012968C911297ED91FC911197E80FF11D05
:1015C000E08113962C911397215013962C93139727
:1015D0002F5F39F48F5F12968C93129787E01396E2
:1015E0008C938E2F90E002C0959587952A95E2F70F
:1015F00081700895A0E0B0E0E0E0FBE00C945D1F96
:101600006C01962E842EFF24C0E0D0E0F1E0AF2ED6
:10161000B12C062F10E00150104019C0C601C7DFE1
:101620008823A1F0882059F0C8018C1B9D0B9501DF
:1016300002C0220F331F8A95E2F7C90106C0C50117
:1016400002C0880F991FEA94E2F7F82A2196EC2E3F
:10165000C91520F38F2DCDB7DEB7ECE00C94791FC0
:10166000A4E0B0E0E6E3FBE00C945F1FFC0187E040
:101670008C833496FA83E9833497109292018181A6
:1016800090E023E0880F991F2A95E1F72381821BC0
:101690009109CE970CF45AC01B82CC24DD245E0144
:1016A0000894A11CB11C2EC0ED2CFF24C50168E0DC
:1016B00040E0A0DF082F83E991E0E80EF91EF70172
:1016C0000083002E02950025002E06950695002524
:1016D000C5016DDF10E00F5F1F4F15950795017075
:1016E000107090E00817190731F4C50160DF9D2DD7
:1016F0009F5F882319F0D092920128C0F701808162
:10170000C826D92EF5E0FD1578F6D0929201C501D4
:1017100068E040E06FDFF82E082F002E02950025CC
:10172000002E069506950025C50141DF10E00F5FEC
:101730001F4F159507950170107090E00817190755
:1017400029F480E0CF1419F481E001C080E02496F0
:10175000EAE00C947B1FA4E0B0E0E1EBFBE00C942A
:101760005F1FFC011B8287E08C833496FA83E98338
:101770003497109292018081853009F053C08181A5
:1017800090E043E0880F991F4A95E1F72381821B7F
:1017900091098938910509F045C019E83FE0C32E49
:1017A00030EFD32E80E05E010894A11CB11C10C064
:1017B000C50168E041E01EDFC80ED11C23E931E01D
:1017C000E20EF31E1827F7011083182F1C5D802FDF
:1017D000E82EFF24082F0F5F8F3050F3C50168E01B
:1017E00041E008DF182F23E931E0E20EF31E809577
:1017F000F701808300939201C50168E041E0FADEC1
:10180000082FC10ED11CC50168E041E0F3DE40E0C5
:10181000302F20E0C21AD30A90E0C816D90619F476
:1018200041E001C040E0842F2496EAE00C947B1F45
:10183000EF92FF921F93DF93CF9300D000D0CDB7EC
:10184000DEB7FC013496FA83E983349781818430D2
:10185000B9F587E08C838381813091F51B8210E09C
:101860007E010894E11CF11C12C0112331F4C70160
:1018700067E041E0BFDE806804C0C70168E041E086
:10188000B9DEE12FF0E0ED56FE4F80831F5F14308C
:1018900060F3CE01019667E041E0ACDEE12FF0E0BD
:1018A000ED56FE4F880F80831F5F1093920190E0EA
:1018B0008091930182958F708A3019F491E001C074
:1018C00090E0892F0F900F900F900F90CF91DF91A4
:1018D0001F91FF90EF900895FC018181A82FB0E047
:1018E00050E0E081CD01841B950B0B964797D8F40F
:1018F0008E2F90E070E09C01261B370B2C303105B9
:1019000094F4255F3F4F7CF08A0F9B1F861B970B3B
:10191000841B950B8C30910534F420E0855F9F4F3C
:101920001CF021E001C020E0822F0895282F30E034
:10193000C901880F991F820F931F860F911D9595DE
:101940008795959587950895DC0111968C9111974F
:10195000843170F010926F0080918F0190E06CE103
:1019600070E00E94311FFC01E15EFE4F108208957D
:10197000662381F0FD01E80FF11D81E090E01396F0
:101980000C90139702C0880F991F0A94E2F72481E4
:10199000282B248313968C911397815013968C9344
:1019A00013978F5F79F487E013968C9313971196B2
:1019B0008C9111978F5F11968C931197A80FB11D81
:1019C00014961C920895282F8552873160F46A304E
:1019D00050F0673240F490E0621708F091E081E047
:1019E0009827892F089580E090E008951F920F9224
:1019F0000FB60F921124EF92FF920F931F932F9324
:101A00003F934F935F936F937F938F939F93AF9386
:101A1000BF93CF93DF93EF93FF9380913C03882391
:101A200021F082E080933C03EFC080911903823063
:101A300021F483E080931903E7C0809184009091A2
:101A40008500E4E096958795EA95E1F7182FE090F8
:101A50008F018E2D90E06CE170E00E94311FEC014F
:101A6000C15EDE4F9881943031F41E3208F4CCC050
:101A70001F3448F0BDC0953031F4173108F4C4C0AC
:101A8000183208F0B5C0892F84504A990CC08230B2
:101A900038F4CE0161E058DF109285001092840086
:101AA0001093C101B1C00091C101F12EF01AF09262
:101AB000C2011092850010928400823020F4CE0181
:101AC00060E042DFA1C082E086BB992371F4053655
:101AD00008F09AC084E68F1508F496C0088FF98E36
:101AE00081E08A8382E088838FC0923009F05AC0F7
:101AF000CE014896602F4F2DEFDE1A81882359F0D2
:101B0000888D602F13DF888F898D6F2D0FDF898F70
:101B10001F5F1A8379C0143008F442C080EA9FE046
:101B200090938900809388001C3050F0298D888D17
:101B300090E0820F911D8536910514F084E025C058
:101B40001A3080F0298D888D90E0820F911D859745
:101B50004CF485E0888388EE93E09093890080932D
:101B6000880014C08091D202882371F0802F6F2DDD
:101B70002ADF882349F0898D688D25DF882321F0AD
:101B800081E08093190334C083E088830A8FFB8E41
:101B9000198287E08B831C8282E080936F0034C0BF
:101BA000188295CFCE014A96602F4F2D95DE88235F
:101BB00061F0CE0161E0C8DE8A8D602FB7DE8A8FCA
:101BC0008B8D6F2DB3DE8B8F1FC0CE014896602F9B
:101BD0004F2D82DE882361F0CE0160E0B5DE888D76
:101BE000602FA4DE888F898D6F2DA0DE898F0CC0B9
:101BF00010926F008E2D90E06CE170E00E94311F1A
:101C0000FC01E15EFE4F1082FF91EF91DF91CF91D9
:101C1000BF91AF919F918F917F916F915F914F9104
:101C20003F912F911F910F91FF90EF900F900FBE5A
:101C30000F901F90189580918F0190E06CE170E0FB
:101C40000E94311FFC01E15EFE4F8081882331F448
:101C500020E030E080913B038F3F11F021E030E045
:101C6000822F08951F920F920FB60F9211242F9377
:101C70003F934F935F936F937F938F939F93AF9314
:101C8000BF93EF93FF9310926F008091CC0283FF7C
:101C900003C08EE20E94610520918F01822F90E0A7
:101CA0006CE170E00E94311FFC01E15EFE4F80811B
:101CB000833060F0822F90E06CE170E00E94311F71
:101CC000FC01E15EFE4F8181823020F410926F00B2
:101CD000822F10C0809191018330B1F48091CC02A9
:101CE00082FF04C081E492E00E949A0510926F0086
:101CF00080918F0190E06CE170E00E94311FFC0147
:101D0000E15EFE4F10820BC08F5F80939101822FA6
:101D10008F5F80938F01843011F410928F01FF91B7
:101D2000EF91BF91AF919F918F917F916F915F9153
:101D30004F913F912F910F900FBE0F901F901895CC
:101D40000F931F93CF93DF938091C2018823B9F142
:101D50008091CC0287FF17C084E30E943102805833
:101D6000803410F480E00CC0803C10F08FE008C09C
:101D700090E08055904003E0959587950A95E1F7AE
:101D80008F590E9461058091CC0283FF16C082E7C3
:101D90000E9461058091CC0284FF04C08091C10142
:101DA0000E94610586E60E9461058091CC0284FF55
:101DB00004C08091C2010E9461051092C20180910D
:101DC0009101882309F442C2459A8091900190E0E4
:101DD0006CE170E00E94311FEC01C15EDE4FCE016C
:101DE000BADC882311F003E5C3C0CE0166E41CDB36
:101DF000882309F402C2409192014150409392011C
:101E0000942F56E007C09150E92FF0E0ED56FE4FB9
:101E10008081580F9923B9F7A42FB0E0FD01ED564A
:101E2000FE4F6081561711F4443068F4852F90E01E
:101E30000196262F30E08217930779F4443068F03A
:101E4000AD56BE4F5C9306E493C09150E92FF0E08D
:101E5000ED56FE4F8081280F02C0942F2CE099236D
:101E6000A1F7261709F0C9C1443008F4C6C1C3C19F
:101E700080919201815080939201893009F0C3C111
:101E800099E020E09150E92FF0E0ED56FE4F80817F
:101E900028279923B9F780919C01281709F0B3C12D
:101EA00005E466C0409192014150409392016091D7
:101EB000A701342F50E095E020E014C03150E32F0B
:101EC000F0E0ED56FE4FE0818E2F82958F7028272F
:101ED000980F662311F0552321F08E2F8F7028273D
:101EE000980F5F5F332351F7920F9295907F922B5B
:101EF000E42FF0E0E61BF109ED56FE4F80819817C4
:101F000061F08B818F5F8B838150873009F099C19D
:101F10001B8289818150898394C10BE429C08B8104
:101F2000843009F0E0C0CE0148966CE34EE1D4DC89
:101F3000882309F4D8C0C8016091C1014EE1CCDC0E
:101F4000682FCE0101DD109292010DC0E92FF0E063
:101F5000DE01AE0FBF1F14968C91ED56FE4F8083AD
:101F60009F5F9093920190919201953078F302E5F2
:101F70008091CC02682F80FFB7C081FF02C020E0B3
:101F80005FC09091A80180919201981799F51092E5
:101F9000A8010EC0E22FF0E0DF01AD56BE4FE755BD
:101FA000FE4F90818C91981749F42F5F2093A801E0
:101FB0002091A80130919201231760F32317D1F4E7
:101FC0008091C6029091C702A091C802B091C90247
:101FD0002091BD013091BE014091BF015091C001DF
:101FE000821B930BA40BB50B8697A105B10510F4CA
:101FF00021E001C020E01092A8010CC0E92FF0E020
:10200000DF01AD56BE4F8C91E755FE4F80839F5F39
:102010009093A8019091A80180919201981770F374
:102020008091C6029091C702A091C802B091C902E6
:102030008093BD019093BE01A093BF01B093C001F6
:102040000435D1F466FD18C0809195018B3409F4F4
:102050004BC0893609F448C0833509F445C084353E
:1020600009F442C08D3709F43FC08E37E9F1809101
:10207000960180778037C1F12223B1F5802F0E942D
:1020800061058091A701882329F0809192018150F8
:102090008093920110E008C0E12FF0E0ED56FE4F72
:1020A00080810E94F0051F5FE09192011E17A0F34E
:1020B0008091A701882359F0F0E0ED56FE4F808112
:1020C00090E08F70907061E040E30E94B3058091D2
:1020D000CC0285FF05C084E30E9431020E94F00516
:1020E0000E94960501C000E08091CC0282FF6DC085
:1020F00080E70E946105888190E062E040E20E94F2
:10210000F405888D90E014E0880F991F1A95E1F787
:1021100065E040E20E94F405898D90E0B4E0880F0C
:10212000991FBA95E1F765E040E20E94F4058A8DB7
:1021300090E0A4E0880F991FAA95E1F765E040E2DE
:102140000E94F4058B8D90E0F4E0880F991FFA95BA
:10215000E1F765E040E20E94F4058A8190E063E0E7
:1021600040E20E94F405898190E063E040E20E9431
:10217000F4052B8187E090E0821B910962E040E248
:102180000E94F40580E20E9461058091CC0285FFE7
:1021900008C084E30E9431020E94F00580E20E94A0
:1021A00061058B81873019F089818F5F898310E009
:1021B00007C0FE01E10FF11D84810E94F0051F5F41
:1021C00089811817B0F30E949605188280919101B9
:1021D000815080939101809190018F5F8093900155
:1021E000843011F4109290014598043579F583E913
:1021F00091E036D62BC004E5BBCECE0165E414D900
:10220000882309F035CECE012BDA882311F008E4BB
:10221000AFCECE010DDB882311F004E7A9CE8E01ED
:10222000065E1F4FC8016091C1014B8D55DB682FC1
:10223000CE018ADBCE016BE4F7D8882309F461CEA6
:1022400031CE8981843009F04ECF69CEDF91CF91B4
:102250001F910F9108958091CC02882321F00E9454
:102260006B030C9494020C945502FC018181882329
:1022700071F48091CC020E94F0058091CA02909185
:10228000CB0265E040E20E94F4050C949605CF0174
:1022900001966CEC72E041E00E943706DCCFA1E0D1
:1022A000B0E0E5E5F1E10C94651F80911903882306
:1022B00009F47DC01091C602833009F060C08FE33D
:1022C0000E943102182F863010F400E018C080E818
:1022D00093E00E94AA0728988FEF0E942B0280E0CB
:1022E0000E942B02082F08C080E00E942B02682F5A
:1022F00080E893E00E94AF071150B1F7289AABDF56
:1023000010921903053709F052C083E893E0BE012B
:102310006F5F7F4F41E00E943706019759F5998121
:102320008091D202981731F580918703853539F075
:102330000DC080E893E00E94C4070E94610580916F
:1023400082038823B1F70E94960531C080918203F1
:1023500084508093820384E08093810380E893E03B
:102360006AE00E94AF07E091C202F091C30288E0E8
:1023700009951DC080E893E00E94AA0718C082302A
:1023800049F48091D102181B183088F064DF109254
:1023900019030DC0813059F487E390E00E941C03BB
:1023A0000E94940282E0809319031093D102219637
:1023B000E4E00C94811F5B980C94E2045B9A0C940B
:1023C000E204A7E0B0E0E7EEF1E10C94621F282FF1
:1023D0008091DB02843551F480911C0390911D03A0
:1023E000019690931D0380931C0339C0863451F4E9
:1023F00080911A0390911B03019690931B03809385
:102400001A032DC0853451F48091CF029091D002EF
:1024100001969093D0028093CF0221C08B3451F467
:1024200080911F0390912003019690932003809345
:102430001F0315C0883451F4809121039091220329
:102440000196909322038093210309C08091CD02CD
:102450009091CE0201969093CE028093CD0285E7B3
:102460008983222319F4DD24D39412C0809123039D
:10247000BE016E5F7F4F0E9484068091D202BE0132
:102480006C5F7F4F0E94840685E58E8386E0D82EA0
:102490000E946B030E94A00210E080E891E08EDFB2
:1024A00080E093E088DF1F5F1630B9F780E093E0AB
:1024B00085DF80E891E07FDF80E891E07FDF5B9857
:1024C00087E390E00E941C0383E00E94E7042898C1
:1024D0008FE70E942B028091D5028D0D0E942B0266
:1024E0007E010894E11CF11C8701F80181918F01A4
:1024F0000E942B02802F8E198D15B8F306C083ED34
:1025000092E00E94C4070E942B028091D50288238A
:10251000B1F7289A0E94A00283ED92E00E94AA07D8
:1025200014E104C0115081E00E94E7048AE30E9494
:10253000310290E08F779070892B11F0112391F781
:102540008ADE2796E7E00C947E1F75DB882361F016
:1025500083E080931E0380911603909117030196E8
:10256000909317038093160380911E0381508093EC
:102570001E03882321F083E080931803089581E0EF
:1025800020CFCF93DF93EC018981882339F48091A8
:10259000D2020E94F005809123030FC0843681F49B
:1025A0008091C6029091C70264E040E30E94B305A7
:1025B0008EE20E946105809118030E94F0054DC0D3
:1025C000833709F04DC080911C0390911D0361E099
:1025D00040E30E94B3058EE20E94610580911A03D8
:1025E00090911B0361E040E30E94B3058EE20E94DC
:1025F00061058091CF029091D00261E040E30E949A
:10260000B3058EE20E94610580911F039091200323
:1026100061E040E30E94B3058EE20E946105809173
:1026200021039091220361E040E30E94B3058EE212
:102630000E9461058091CD029091CE0261E040E35D
:102640000E94B3058EE20E9461058091160390916D
:10265000170361E040E30E94B3050E9496052CC079
:102660008936D9F4CE01029662ED72E041E00E9413
:10267000370680E690E06091D2020E94E506CE0126
:10268000049663E273E041E00E94370681E690E041
:10269000609123030E94E5060FC083ED92E00E9443
:1026A000AA0704C083ED92E00E94AF0721966881DB
:1026B0006623C1F780E085DEDF91CF91089580E643
:1026C00090E00E94A6068093D20281E690E00E94EC
:1026D000A60680932303882321F081E28093CC0215
:1026E000BACD0895ACE3B0E0E8E7F3E10C94621FE3
:1026F0008091C301882309F4A5C04A9B90C08FE351
:102700000E9431028F7789838E3110F08DE18983A9
:1027100028988FEF0E942B0210E022E0E22EF12C8D
:10272000EC0EFD1E08C080E00E942B02F701E10FB5
:10273000F11D80831F5F09811017A8F380E00E94BC
:102740002B02D82E289A8AE30E944D0286E30E942B
:102750004D028DE30E944D0284E30E944D020F8FD3
:102760008A8196E7892788A312E0BE01615E7F4FC8
:10277000AE014F5F5F4F0FC0DB01A20FB31FFE0121
:10278000E20FF31F80818452240F351FF9019081DD
:1027900089278C931F5F8F8D212F30E0181760F3EE
:1027A000620F731F420F531FFA01808199A189277D
:1027B000FB0180838091CC0284FF14C081E60E94DB
:1027C00061050F8D10E09FE1E92EF12CEC0EFD1E4E
:1027D000F701E10FF11D80810E9461051F5F011764
:1027E000B8F730C081E40E9461050F8D10E08FE1E1
:1027F000E82EF12CEC0EFD1EF701E10FF11D80819A
:102800000E94F0051F5F0117B8F78091CC0285FF89
:1028100003C08D2D0E94F0050E94960513C085E32C
:102820000E943102813011F0813161F48AE30E940B
:102830004D0286E30E944D028DE30E944D0284E327
:102840000E944D02EC96E7E00C947E1FCF93DF933D
:10285000EA98209A289A8EE190E00E94E204289853
:102860008EE190E00E94E204289A8DE290E00E94BE
:10287000E20480E30E944D0284E690E00E94E204BC
:10288000C8E4D2E0FE018491813450F42196FE0127
:1028900064910E943F022196F2E0CA37DF0791F768
:1028A00083E30E944D0281E00E94E704DF91CF9113
:1028B0000895ACE3B0E0EFE5F4E10C94621F0196FB
:1028C000BE01615E7F4F4DE10E943706D82E282F52
:1028D00030E0215030408F8D90E02817390709F003
:1028E00061C08091C301882321F4B0DF83E00E949E
:1028F000E70486E30E944D028AE30E944D028BE3C7
:102900000E944D024F8D498388A196E789278A83CB
:10291000DE0112969E012F5D3F4F52E00BC08C915D
:102920008452F90191919F01892711968C931197F7
:102930005F5F1196541798F3E52FF0E07E0108943D
:10294000E11CF11CD701AE0FBF1FEC0FFD1F878DDF
:1029500099A189278C9328988FE70E942B028701E1
:1029600005C0F80181918F010E942B02802F8E19E2
:102970008D15B8F3289A8AE30E944D0285E30E94E0
:102980004D0203C085E00E94E70485E30E94310206
:102990008130C1F78091C301882319F00E9494020D
:1029A00001C059DCEC96E7E00C947E1FFC01019617
:1029B0002181223729F44ADF81E08093C301089501
:1029C000233709F476CF1092C3010895282F813060
:1029D00089F45B9A809108019091090163E070E0AD
:1029E0000E94311F0E94E2045B988091080190913F
:1029F000090131C080910801909109012223F9F465
:102A00005B9A0E94E2045B98809108019091090111
:102A100063E070E00E94311F0E94E2045B9A8091A3
:102A20000801909109010E94E2045B9880910801DD
:102A30009091090163E070E00E94311F1EC05B9A13
:102A40000E94E2045B98809108019091090163E083
:102A500070E00E94311F0E94E2045B9A809108019D
:102A60009091090163E070E00E94311F0E94E2042E
:102A70005B9880910801909109010C94E2040F93F6
:102A80001F93CF93DF93EA98209A289A8EE190E0E3
:102A90000E94E20428988EE190E00E94E204289AC5
:102AA0008DE290E00E94E20480E30E944D0284E601
:102AB00090E00E94E204289880E40E942B02CAE77A
:102AC000D2E0FE0184910E942B022196F2E0C738E9
:102AD000DF07B9F780910C010E942B0280910D0154
:102AE0000E942B0280910E010E942B022396FE0170
:102AF00084910E942B022196F2E0C33ADF07B9F7D6
:102B0000289A28988EE70E942B028BE290E08C0195
:102B10000F5F1F4F0E94A6060E942B02C8010333BD
:102B20001105A9F7289A83E30E944D0281E00E94D3
:102B3000E70481E08093C402DF91CF911F910F9150
:102B40000895CF92DF92EF92FF921F93CF93DF937E
:102B50007C01FC018181843759F4C701029668E049
:102B600071E00E946A06809108019091090111C0EC
:102B7000833709F095C0F7018281823789F4C70154
:102B800003966AE071E00E946A0680910A019091C2
:102B90000B0160E040E20E94F4050E949605DAC055
:102BA000459A8091C501882379F41E9B0DC08091C0
:102BB000C301882329F081E08093C4011092C301EE
:102BC0005EDF83E00E94E70486E30E944D028AE311
:102BD0000E944D028BE30E944D020E94A002CC2471
:102BE000DD2424C08A81803311F480E005C0813364
:102BF00011F481E001C082E0E9DE1F5F21961D3003
:102C000089F75B9A80910801909109010E94E20482
:102C10005B9810E080910801909109010E94E20404
:102C20001F5F1F31B9F70894C11CD11C80910A01A4
:102C300090910B01C816D90618F4E70111E0D2CF24
:102C40008091C501882341F08091CC02882371F4E2
:102C500086E30E944D020EC08091C401882349F092
:102C60001092C401F3DD81E08093C3010E949402BD
:102C700001C0F1DA459889E60E94610583E70E9468
:102C80006105E70111E08A81803319F0813309F091
:102C900086E40E9461051F5F21961D30A1F77DCF5C
:102CA000823771F48091C301882329F081E08093F9
:102CB000C4011092C301E3DE81E08093C5014AC0E4
:102CC000863659F5F7018281803351F480E1809393
:102CD0000C0180EB80930D0181E780930E0107C00A
:102CE000C70102966CE071E043E00E94370689E676
:102CF0000E94610586E60E9461058AE30E946105E3
:102D000080910C010E94F00580910D010E94F00558
:102D100080910E010E94F00540CF8837D9F4809150
:102D2000C401882339F01092C40190DD81E08093C2
:102D3000C30108C082E090E00E941C038091CC0295
:102D4000882319F00E94940203C086E30E944D027A
:102D50001092C501DF91CF911F91FF90EF90DF900E
:102D6000CF900895DC01EEECF1E00EC0109751F029
:102D700091818C91981731F4928111968C911197D1
:102D80009817A1F0E20FF11D2081222321F082E0AB
:102D9000EC37F80758F382E0EC37F80719F010F039
:102DA000ECE7F2E0AB2B11F0E0E0F0E0CF010895AA
:102DB000CF93DF93EC01D6DFFC01009779F090917F
:102DC0007C028081981750F4E90FF11D80818A837D
:102DD00089E78B8381818C8381E001C080E0DF9172
:102DE000CF9108950F931F93CF93DF938C01809120
:102DF000CC0286FF18C084E50E946105C0E0D0E0E7
:102E0000F801EC0FFD1F80810E94F0052196C5306E
:102E1000D105B1F78091CC0285FF03C08AEF0E94F3
:102E2000F0050E949605DF91CF911F910F910895B3
:102E300086E30E944D028091C901833511F08BE435
:102E400001C08BE90E94E70487EC91E065E04CE06B
:102E500021E00E9454090E94940287EC91E0C2CFC5
:102E60001F93FC014081318112819381248189E289
:102E700080933B031092CD0150912403552329F4F4
:102E800080913A03882309F4CDC08091C70184174B
:102E900021F48091C801831771F0109226031092DB
:102EA000C60183E080937C028FEF80933B034093C5
:102EB000C7013093C801809126038F3F09F4B2C047
:102EC0001093C9019093CA012093CB011123E1F023
:102ED0008823D1F4251761F0243651F0812F8355D2
:102EE000823010F01D3721F48FEF809326039AC0B3
:102EF000143509F497C0892F807F803609F092C07D
:102F000090679093CA0183C087EC91E051DF8823DA
:102F100029F480912603882309F484C09091C60186
:102F2000992311F0892F06C0E0912603F0E0ED55BA
:102F3000FD4F8491833541F4143531F4809126039B
:102F40008E5F809326030BC0811749F010922603F1
:102F50001092C60183E080937C028FEF61C09923B9
:102F600079F080917C028E5F80937C0287EC91E007
:102F70001FDF882371F4809126038E5F80932603E0
:102F800090912603E92FF0E0EC55FD4F14911F3F7F
:102F900059F48091C9018093C6018436C1F58091AE
:102FA00025038093CB0133C01093C90187E7809339
:102FB000CA01809124038093CB01892F8E5F809377
:102FC00026031092C6018E3001F587EC91E0CADE2F
:102FD000FC01009781F0808190E02CE732E0281B13
:102FE000390BDF01A80FB91F02C08D918193E21741
:102FF000F307D8F31082109226031092C60183E0E3
:1030000080937C028FEF80933B03112359F010DFF4
:103010008091C901893631F081E08093CD0189E248
:1030200080933B031F9108958091CD01882351F037
:10303000FFDE89E280933B038091CD018150809334
:10304000CD010895109226031092C60183E080936B
:103050007C028FEF80933B030895A6E0B0E0E2E3AB
:10306000F8E12FC720913A0380912703882341F08C
:10307000833019F08DE790E00EC087E791E00BC038
:10308000822F90E0877090706DE770E0EAD6825BE7
:103090009F489595879590932903809328032A83C9
:1030A0001B820AE213E0FF246E010894C11CD11CAC
:1030B0008CE2E82EF80190819F3FB1F080912403CB
:1030C0008F0D898380912703882311F0EC8203C040
:1030D0009C83F80181818D83C60165E04CE021E08D
:1030E0000E945409C6017EDEF3940E5F1F4FF8E084
:1030F000FF1601F780912703882341F0833019F4EC
:103100001092270303C08250809327032696E8E09D
:10311000F4C685E390E00E94A6068093240386E32C
:1031200090E00E94A60680933A03EAE2F3E09FEF64
:103130009083329683E0EA33F807D1F710922603A2
:103140001092C60183E080937C0290933B0310921F
:10315000CE0108956F927F929F92AF92BF92CF92CD
:10316000DF92EF92FF920F931F93DF93CF9300D0E4
:1031700000D000D0CDB7DEB73C017C010894E11C43
:10318000F11CC701BE016F5F7F4F45E00E9437060B
:10319000E981843008F0ACC0E130A9F4833061F4F7
:1031A00085E390E06A810E94E50686E390E06B810A
:1031B0000E94E506AEDF22C1809124030E94F00543
:1031C00080913A0390C0E23009F04DC0813029F07F
:1031D00020E030E08A81813011F421E030E0E22EFD
:1031E0008091CE01882321F48BEB92E00E949A0516
:1031F0000EEC11E02EC081E00E3C180719F080E2C1
:103200000E946105F80181810E94F005F801828128
:103210000E94F005EE20C9F08AE30E94610563E098
:10322000F62E0FC0F3E0FF1528F4F0FE03C08CE289
:103230000E946105F801EF0DF11DF39480810E9459
:10324000F005F8018081F81668F3F8018081080F15
:10325000111DF8018081882309F447C0F2E00C3782
:103260001F0748F242C0E33049F480E090E07ADD85
:103270002EEC31E02255281B822F35C0E03149F574
:103280000AE213E0EE24FF24F80180818F3FA1F0D1
:10329000EE2019F080E20E9461058F2D0E94F0055A
:1032A0008AE30E946105F80180810E94F005F8011F
:1032B00081810E94F005E3940E5F1F4FF394F8E0C4
:1032C000FF1611F7EE2089F487EB92E00E949A0531
:1032D0000CC0E13151F480912803909129036DE7EE
:1032E00070E0D1D5862F0E94F0050E94960586C019
:1032F00080912403E817D0F1482F50E0F0E0CA0194
:1033000007968E179F0794F19A8180913A03981738
:1033100069F58C818F3231F4C3016CE042E00E9488
:10332000C9096CC02D818C32C1F42093270381E040
:1033300090E0909329038093280330E0220F331FFD
:10334000220F331F8091CA029091CB02820F931FEC
:103350009093CB028093CA0251C0E41BF50BEE0F91
:10336000F0E0E65DFC4F8083218348C080E090E080
:10337000F9DC8C01D7010D900020E9F71197AE1907
:10338000BF09B695A7959A2E9394890D911D8E5CD1
:1033900091408F3A910574F5F80190827801CC2420
:1033A000C394DD24D3941BC057010894A11CB11C05
:1033B000C3018C0D911DB50141E00E943706F2E07A
:1033C000FD1548F4D0FC07C0F7018081843619F45C
:1033D000818180932503F2E0CF0ED3947501D91437
:1033E00018F382E00C37180748F40D0D111DF80191
:1033F000108204C081EB92E00E949A0526960FB6D7
:10340000F894DEBF0FBECDBFCF91DF911F910F911A
:10341000FF90EF90DF90CF90BF90AF909F907F9004
:103420006F900895A0E4B0E0E7E1FAE14AC5809129
:103430003C03882309F44AC08130B1F490917D02A5
:103440008091C602981709F441C085E30E943102B9
:10345000813129F48AE30E944D020E9494028091F6
:10346000C60280937D0232C08FE30E943102D82EC3
:103470008FE38D1540F128988FEF0E942B027E017B
:103480000894E11CF11C8701CE2C06C080E00E944C
:103490002B02F80181938F01802F8C198D15B0F3C9
:1034A000289A81E080931A0105C0F70181917F017C
:1034B0000E9461058E2D8C198D15B8F30E9496051A
:1034C0008FEF80931A0181E080933C03C05CDF4F53
:1034D000E8E013C50F931F93CF93DF93EC01DC015A
:1034E0000D900020E9F71197A81BB90B898182374D
:1034F00051F487E390E00E941C030E94940281E053
:1035000080933C0329C0833729F50A2F28988FE739
:103510000E942B02802F82500E942B0212E004C0D6
:1035200089810E942B021F5F21961017C8F3289AE9
:103530000E94A00204C084E690E00E94E2048AE3B4
:103540000E94310290E08F779070892BA1F70E9442
:10355000940202C010923C03DF91CF911F910F9112
:1035600008950F931F93CF93DF93EC0100E0802F1A
:1035700090E063E070E075D4FC01E856FF4F1491D1
:10358000802F90E063E070E06CD4FC01E756FF4FC1
:1035900025913491112399F0209739F480E20E940B
:1035A0006105812F0E94610508C08881811729F477
:1035B000CE01F901099581E003C00F5FD8CF80E00B
:1035C000DF91CF911F910F9108951F9310911A01D0
:1035D00080931A0135C080E893E00E94C4078A30C6
:1035E00011F08D3009F5E0917E02EE2349F1F0E013
:1035F000E158FD4F10828FE792E0B3DF882389F412
:1036000087ED92E00E949A058FE792E00E94A7055D
:103610008FEB92E00E949A0580E090E0A2DF0E948A
:10362000960510927E020CC090917E02903440F478
:10363000E92FF0E0E158FD4F80839F5F90937E0279
:1036400080918203882339F610931A011F910895FF
:10365000E4E6F0E080818B7F8083299A84B18760E3
:1036600084B9239880E58CBD8DB581608DBD0895AA
:103670004091D0035091D1034115510521F440915F
:103680001101509112012091130130911401211563
:10369000310541F42DB73EB780910F019091100193
:1036A000281B390B4217530718F020E030E002C006
:1036B000241B350BC901089582E40E9461058091A5
:1036C000D0039091D10365E040E20E94F4050E948E
:1036D000960583E50E946105809111019091120188
:1036E00065E040E20E94F4050E94960585E40E9490
:1036F0006105809113019091140165E040E20E9400
:10370000F4050E94960586E40E946105B1DF65E03C
:1037100040E20E94F4050C949605A2E0B0E0E2E9D4
:10372000FBE1D5C3E8ECF3E08091F100819383E005
:10373000E03DF807C9F78091C8033091C9033530DF
:1037400009F49FC0363048F4313009F44BC03130B1
:1037500070F0333009F023C145C0383009F4D7C0C8
:10376000393009F4FCC0363009F019C1B4C08038D2
:1037700021F0823809F013C108C09091C3038091F1
:10378000C403882391F0926010C08091CC03809391
:10379000E9008091EB0090E025E0969587952A95C9
:1037A000E1F7982F91701092E9008091E800877FEF
:1037B0008093E8009093F1001092F1008091E8006E
:1037C000982F9E7F9093E8008F778093E80005C044
:1037D0008091C703882309F4E4C08091E80082FF48
:1037E000F7CFB3C0882319F0823009F0D8C090E039
:1037F0008F719070009719F00297B9F50CC0809105
:10380000CA03813009F0CDC01092C403333069F58A
:103810008093C4032AC08091CA03882331F5209184
:10382000CC03277009F4BDC02093E9008091EB0020
:1038300080FF1BC03130A1F48091EB008061809348
:10384000EB0081E090E002C0880F991F2A95E2F713
:103850008093EA001092EA008091EB00886003C038
:103860008091EB0080628093EB001092E9008091E0
:10387000E800877F8093E8008091E800982F9E7F82
:1038800068C0882309F08BC02091CA038091E800AA
:10389000877F8093E8008091E800982F9E7F909327
:1038A000E8008F778093E80005C08091C7038823E4
:1038B00009F477C08091E80080FFF7CF922F9F77BF
:1038C000892F80688093E300992309F46AC083E01C
:1038D0008093C70366C08058823008F060C0809132
:1038E000CA039091CB036091CC03AE014F5F5F4F51
:1038F0000E94EB01BC01009709F453C08091E800DD
:10390000877F8093E80089819A8126D11EC0803804
:1039100009F045C08091E800877F8093E80080919E
:10392000C5038093F1008091E800982F9E7F9093CB
:10393000E8008F778093E80004C08091C703882354
:1039400081F18091E80082FFF8CF8091E800982F04
:103950009B7F9093E8008F778093E80022C08823B4
:10396000F1F42091CA032230E0F48091E800877FCF
:103970008093E8002093C5038091E800982F9E7FF4
:103980009093E8008F778093E800222311F084E081
:1039900001C083E08093C7030E942E0402C00E94EE
:1039A000F0038091E80083FF0AC08091EB00806201
:1039B0008093EB008091E800877F8093E800229657
:1039C000E2E0A1C28093E9008091EB0081608093E6
:1039D000EB001092ED006093EC004093ED008091BD
:1039E000EE00881F8827881F08951092F40090E049
:1039F0009093E9001092F0001092E8008091ED00A1
:103A00008D7F8093ED008091EB008E7F8093EB00A3
:103A10009F5F953069F708958091C8038823BCF4AF
:103A200004C08091C7038823F9F08091E80082FFE9
:103A3000F8CF8091E800982F9B7F9093E8008F77D4
:103A40008093E80008958091C703882369F08091EE
:103A5000E80080FFF8CF8091E800982F9E7F909338
:103A6000E8008F778093E800089594E68091EC0059
:103A700080FF05C08091E80080FF05C01FC08091D5
:103A8000E80082FD1BC08091C703882311F482E007
:103A900008958091EB0085FF02C081E00895809138
:103AA000E10082FFE3CF8091E1008B7F8093E10012
:103AB000992311F483E008959150D8CF80E00895C0
:103AC000FC014091CE035091CF039B01461757074D
:103AD00008F49A0140E02EC08091E80083FF02C004
:103AE00081E008958091E80082FD2EC08091C70397
:103AF000882381F18091E80080FF1CC005C081917E
:103B00008093F100215030402115310521F0809142
:103B1000F2008830A0F38091F20040E0883009F490
:103B200041E08091E800982F9E7F9093E8008F7786
:103B30008093E8002115310579F6442369F604C025
:103B40008091C703882331F08091E80082FFF8CF8D
:103B500080E0089582E00895DC014091CE03509109
:103B6000CF039B014617570708F49A0140E030C085
:103B70008091E80083FF02C081E008958091E80011
:103B800082FD30C08091C703882391F18091E800C5
:103B900080FF1EC007C0FD011196E491E093F10083
:103BA000215030402115310521F08091F2008830FC
:103BB00090F38091F20040E0883009F441E0809178
:103BC000E800982F9E7F9093E8008F778093E8001D
:103BD0002115310569F6442359F604C08091C703C5
:103BE000882331F08091E80082FFF8CF80E00895CB
:103BF00082E00895FC0122C08091E80083FF02C0AA
:103C000081E008958091C703882331F18091E80015
:103C100082FFF2CF06C08091F10081936150704025
:103C200021F08091F2008823B1F78091E800982F6D
:103C30009B7F9093E8008F778093E8006115710572
:103C4000D9F604C08091C703882331F08091E80041
:103C500080FFF8CF80E0089582E0089553D055D0DA
:103C60001092C7031092C5031092C4031092C303AD
:103C700019BC89B5826089BD09B400FEFDCF809171
:103C8000D800982F9F779093D80080688093D800B1
:103C9000809163008E7F809363008091D8008F7D38
:103CA0008093D8008091E0008E7F8093E000809127
:103CB000E1008E7F8093E1008091E200816080933B
:103CC000E2008091E100877F8093E1008091E20033
:103CD00088608093E2000895C1DFE0EEF0E080812B
:103CE00081608083E8EDF0E080818F77808319BC6C
:103CF0001092C6030895B2DF81E08093C6037894E2
:103D0000089508951092E20008951092E100089538
:103D10001F920F920FB60F9211242F933F934F9340
:103D20005F936F937F938F939F93AF93BF93EF9323
:103D3000FF938091E10080FF1CC08091E20080FF32
:103D400018C08091E1008E7F8093E1008091E200B5
:103D50008E7F8093E2008091E20080618093E20098
:103D60008091D80080628093D80019BC1092C7035C
:103D7000C8DF8091E10084FF29C08091E20084FFC8
:103D800025C019BC89B5826089BD09B400FEFDCF8C
:103D90008091D8008F7D8093D8008091E1008F7E44
:103DA0008093E1008091E2008F7E8093E200809119
:103DB000E20081608093E2008091C503882311F4C2
:103DC00081E001C084E08093C7039BDF8091E10024
:103DD00083FF23C08091E20083FF1FC08091E10038
:103DE000877F8093E10082E08093C7031092C50330
:103DF0008091E1008E7F8093E1008091E2008E7FD0
:103E00008093E2008091E20080618093E200EDDD2A
:103E100080E060E042E0D6DD74DFFF91EF91BF917A
:103E2000AF919F918F917F916F915F914F913F9152
:103E30002F910F900FBE0F901F9018951F93809198
:103E4000C703882361F01091E9001092E900809186
:103E5000E80083FF01C061DC17701093E9001F9137
:103E600008955527002480FF02C0060E571F660FD5
:103E7000771F6115710521F096958795009799F741
:103E8000952F802D0895AA1BBB1B51E107C0AA1FC7
:103E9000BB1FA617B70710F0A61BB70B881F991FEB
:103EA0005A95A9F780959095BC01CD0108952F9260
:103EB0003F924F925F926F927F928F929F92AF92BA
:103EC000BF92CF92DF92EF92FF920F931F93CF9307
:103ED000DF93CDB7DEB7CA1BDB0B0FB6F894DEBF9E
:103EE0000FBECDBF09942A88398848885F846E84C4
:103EF0007D848C849B84AA84B984C884DF80EE800E
:103F0000FD800C811B81AA81B981CE0FD11D0FB616
:103F1000F894DEBF0FBECDBFED010895F999FECF35
:103F200092BD81BDF89A992780B50895262FF999F9
:103F3000FECF1FBA92BD81BD20BD0FB6F894FA9A8C
:0C3F4000F99A0FBE01960895F894FFCF87
:103F4C008025000000000802A401060010B07120BA
:063F5C0000D40300000088
:00000001FF
